{
  "address": "0xf430C066a2d45D3EfbB06Fc4EFCe79AbC0D51b95",
  "abi": [
    {
      "anonymous": false,
      "inputs": [
        {
          "indexed": true,
          "internalType": "address",
          "name": "previousOwner",
          "type": "address"
        },
        {
          "indexed": true,
          "internalType": "address",
          "name": "newOwner",
          "type": "address"
        }
      ],
      "name": "OwnershipTransferred",
      "type": "event"
    },
    {
      "anonymous": false,
      "inputs": [
        {
          "indexed": true,
          "internalType": "address",
          "name": "caller",
          "type": "address"
        },
        {
          "indexed": true,
          "internalType": "address",
          "name": "owner",
          "type": "address"
        },
        {
          "indexed": true,
          "internalType": "address",
          "name": "token",
          "type": "address"
        },
        {
          "indexed": false,
          "internalType": "uint256",
          "name": "amount",
          "type": "uint256"
        }
      ],
      "name": "TransferToOwner",
      "type": "event"
    },
    {
      "anonymous": false,
      "inputs": [
        {
          "indexed": true,
          "internalType": "address",
          "name": "caller",
          "type": "address"
        },
        {
          "indexed": true,
          "internalType": "address",
          "name": "token",
          "type": "address"
        },
        {
          "indexed": false,
          "internalType": "uint256",
          "name": "amount",
          "type": "uint256"
        }
      ],
      "name": "WithdrawOnChild",
      "type": "event"
    },
    {
      "anonymous": false,
      "inputs": [
        {
          "indexed": true,
          "internalType": "address",
          "name": "caller",
          "type": "address"
        }
      ],
      "name": "WithdrawOnRoot",
      "type": "event"
    },
    {
      "inputs": [
        {
          "internalType": "uint256",
          "name": "_withdrawCooldown",
          "type": "uint256"
        },
        {
          "internalType": "address",
          "name": "_rootChainManager",
          "type": "address"
        }
      ],
      "name": "initialize",
      "outputs": [],
      "stateMutability": "nonpayable",
      "type": "function"
    },
    {
      "inputs": [
        {
          "internalType": "address",
          "name": "",
          "type": "address"
        }
      ],
      "name": "lastWithdraw",
      "outputs": [
        {
          "internalType": "uint256",
          "name": "",
          "type": "uint256"
        }
      ],
      "stateMutability": "view",
      "type": "function"
    },
    {
      "inputs": [],
      "name": "owner",
      "outputs": [
        {
          "internalType": "address",
          "name": "",
          "type": "address"
        }
      ],
      "stateMutability": "view",
      "type": "function"
    },
    {
      "inputs": [],
      "name": "renounceOwnership",
      "outputs": [],
      "stateMutability": "nonpayable",
      "type": "function"
    },
    {
      "inputs": [],
      "name": "rootChainManager",
      "outputs": [
        {
          "internalType": "address",
          "name": "",
          "type": "address"
        }
      ],
      "stateMutability": "view",
      "type": "function"
    },
    {
      "inputs": [
        {
          "internalType": "uint256",
          "name": "_withdrawCooldown",
          "type": "uint256"
        }
      ],
      "name": "setWithdrawCooldown",
      "outputs": [],
      "stateMutability": "nonpayable",
      "type": "function"
    },
    {
      "inputs": [
        {
          "internalType": "address",
          "name": "newOwner",
          "type": "address"
        }
      ],
      "name": "transferOwnership",
      "outputs": [],
      "stateMutability": "nonpayable",
      "type": "function"
    },
    {
      "inputs": [
        {
          "internalType": "address",
          "name": "_token",
          "type": "address"
        }
      ],
      "name": "transferToOwner",
      "outputs": [],
      "stateMutability": "nonpayable",
      "type": "function"
    },
    {
      "inputs": [
        {
          "internalType": "bytes",
          "name": "_data",
          "type": "bytes"
        },
        {
          "internalType": "address",
          "name": "_token",
          "type": "address"
        }
      ],
      "name": "withdrawAndTransferToOwner",
      "outputs": [
        {
          "internalType": "bytes",
          "name": "",
          "type": "bytes"
        }
      ],
      "stateMutability": "nonpayable",
      "type": "function"
    },
    {
      "inputs": [],
      "name": "withdrawCooldown",
      "outputs": [
        {
          "internalType": "uint256",
          "name": "",
          "type": "uint256"
        }
      ],
      "stateMutability": "view",
      "type": "function"
    },
    {
      "inputs": [
        {
          "internalType": "address",
          "name": "_childToken",
          "type": "address"
        }
      ],
      "name": "withdrawOnChild",
      "outputs": [],
      "stateMutability": "nonpayable",
      "type": "function"
    },
    {
      "inputs": [
        {
          "internalType": "bytes",
          "name": "_data",
          "type": "bytes"
        }
      ],
      "name": "withdrawOnRoot",
      "outputs": [
        {
          "internalType": "bytes",
          "name": "",
          "type": "bytes"
        }
      ],
      "stateMutability": "nonpayable",
      "type": "function"
    }
  ],
  "transactionHash": "0x2f22c7371c1b013c65f234c13fd6528b8f458e258e3795058e93868720e8b3b5",
  "args": [],
  "solcInputHash": "538bfa6cc5132d8b49064a6ad70d67bb",
  "bytecode": "0x608060405234801561001057600080fd5b50611fd5806100206000396000f3fe608060405234801561001057600080fd5b50600436106100b45760003560e01c8063812d504d11610071578063812d504d1461018d57806385d3f47e146101a95780638da5cb5b146101c5578063bd07018d146101e3578063da35a26f14610201578063f2fde38b1461021d576100b4565b806316feab75146100b9578063260b1fd9146100e95780633cbfe3a11461011957806344feed2914610137578063624d7b7214610153578063715018a614610183575b600080fd5b6100d360048036038101906100ce9190611554565b610239565b6040516100e091906118c4565b60405180910390f35b61010360048036038101906100fe919061150b565b6102b1565b60405161011091906118c4565b60405180910390f35b610121610432565b60405161012e9190611a48565b60405180910390f35b610151600480360381019061014c91906115b0565b610438565b005b61016d600480360381019061016891906114b1565b610514565b60405161017a9190611a48565b60405180910390f35b61018b61052c565b005b6101a760048036038101906101a291906114b1565b6105b4565b005b6101c360048036038101906101be91906114b1565b6107cc565b005b6101cd610a9e565b6040516101da9190611880565b60405180910390f35b6101eb610ac8565b6040516101f89190611880565b60405180910390f35b61021b6004803603810190610216919061160a565b610aee565b005b610237600480360381019061023291906114b1565b610c89565b005b606060011515606560009054906101000a900460ff16151514610291576040517f08c379a0000000000000000000000000000000000000000000000000000000008152600401610288906119a8565b60405180910390fd5b600061029c846102b1565b90506102a7836105b4565b8091505092915050565b606060011515606560009054906101000a900460ff16151514610309576040517f08c379a0000000000000000000000000000000000000000000000000000000008152600401610300906119a8565b60405180910390fd5b610311610d81565b73ffffffffffffffffffffffffffffffffffffffff167fc3ff84400b51b8faa19b096a526771e00f25836296ed44a71bc9d01fd59e4ae360405160405180910390a2600080606560019054906101000a900473ffffffffffffffffffffffffffffffffffffffff1673ffffffffffffffffffffffffffffffffffffffff168460405161039d9190611869565b6000604051808303816000865af19150503d80600081146103da576040519150601f19603f3d011682016040523d82523d6000602084013e6103df565b606091505b5091509150818190610427576040517f08c379a000000000000000000000000000000000000000000000000000000000815260040161041e91906118e6565b60405180910390fd5b508092505050919050565b60675481565b610440610d81565b73ffffffffffffffffffffffffffffffffffffffff1661045e610a9e565b73ffffffffffffffffffffffffffffffffffffffff16146104b4576040517f08c379a00000000000000000000000000000000000000000000000000000000081526004016104ab906119e8565b60405180910390fd5b60001515606560009054906101000a900460ff1615151461050a576040517f08c379a000000000000000000000000000000000000000000000000000000000815260040161050190611948565b60405180910390fd5b8060678190555050565b60666020528060005260406000206000915090505481565b610534610d81565b73ffffffffffffffffffffffffffffffffffffffff16610552610a9e565b73ffffffffffffffffffffffffffffffffffffffff16146105a8576040517f08c379a000000000000000000000000000000000000000000000000000000000815260040161059f906119e8565b60405180910390fd5b6105b26000610d89565b565b60011515606560009054906101000a900460ff1615151461060a576040517f08c379a0000000000000000000000000000000000000000000000000000000008152600401610601906119a8565b60405180910390fd5b600073ffffffffffffffffffffffffffffffffffffffff168173ffffffffffffffffffffffffffffffffffffffff16141561067a576040517f08c379a000000000000000000000000000000000000000000000000000000000815260040161067190611988565b60405180910390fd5b60008190506000610689610a9e565b905060008273ffffffffffffffffffffffffffffffffffffffff166370a08231306040518263ffffffff1660e01b81526004016106c69190611880565b60206040518083038186803b1580156106de57600080fd5b505afa1580156106f2573d6000803e3d6000fd5b505050506040513d601f19601f8201168201806040525081019061071691906115dd565b90508373ffffffffffffffffffffffffffffffffffffffff168273ffffffffffffffffffffffffffffffffffffffff1661074e610d81565b73ffffffffffffffffffffffffffffffffffffffff167f76a904d36c6485f9a5b321da55bfecf63789bc50598252e91560e3b6175c1c06846040516107939190611a48565b60405180910390a46107c682828573ffffffffffffffffffffffffffffffffffffffff16610e4f9092919063ffffffff16565b50505050565b60001515606560009054906101000a900460ff16151514610822576040517f08c379a000000000000000000000000000000000000000000000000000000000815260040161081990611948565b60405180910390fd5b600073ffffffffffffffffffffffffffffffffffffffff168173ffffffffffffffffffffffffffffffffffffffff161415610892576040517f08c379a000000000000000000000000000000000000000000000000000000000815260040161088990611908565b60405180910390fd5b606754606660008373ffffffffffffffffffffffffffffffffffffffff1673ffffffffffffffffffffffffffffffffffffffff168152602001908152602001600020546108df9190611afc565b4310156108eb57610a9b565b43606660008373ffffffffffffffffffffffffffffffffffffffff1673ffffffffffffffffffffffffffffffffffffffff16815260200190815260200160002081905550600081905060008173ffffffffffffffffffffffffffffffffffffffff166370a08231306040518263ffffffff1660e01b815260040161096f9190611880565b60206040518083038186803b15801561098757600080fd5b505afa15801561099b573d6000803e3d6000fd5b505050506040513d601f19601f820116820180604052508101906109bf91906115dd565b90508273ffffffffffffffffffffffffffffffffffffffff166109e0610d81565b73ffffffffffffffffffffffffffffffffffffffff167f03d1c6e11435f9fdf99686494801bee42b031ab3c47c63abdbca7e22c33f5cbd83604051610a259190611a48565b60405180910390a38173ffffffffffffffffffffffffffffffffffffffff16632e1a7d4d826040518263ffffffff1660e01b8152600401610a669190611a48565b600060405180830381600087803b158015610a8057600080fd5b505af1158015610a94573d6000803e3d6000fd5b5050505050505b50565b6000603360009054906101000a900473ffffffffffffffffffffffffffffffffffffffff16905090565b606560019054906101000a900473ffffffffffffffffffffffffffffffffffffffff1681565b600060019054906101000a900460ff1680610b14575060008054906101000a900460ff16155b610b53576040517f08c379a0000000000000000000000000000000000000000000000000000000008152600401610b4a906119c8565b60405180910390fd5b60008060019054906101000a900460ff161590508015610ba3576001600060016101000a81548160ff02191690831515021790555060016000806101000a81548160ff0219169083151502179055505b610bab610ed5565b600073ffffffffffffffffffffffffffffffffffffffff168273ffffffffffffffffffffffffffffffffffffffff1614610c40576001606560006101000a81548160ff02191690831515021790555081606560016101000a81548173ffffffffffffffffffffffffffffffffffffffff021916908373ffffffffffffffffffffffffffffffffffffffff160217905550610c5c565b6000606560006101000a81548160ff0219169083151502179055505b826067819055508015610c845760008060016101000a81548160ff0219169083151502179055505b505050565b610c91610d81565b73ffffffffffffffffffffffffffffffffffffffff16610caf610a9e565b73ffffffffffffffffffffffffffffffffffffffff1614610d05576040517f08c379a0000000000000000000000000000000000000000000000000000000008152600401610cfc906119e8565b60405180910390fd5b600073ffffffffffffffffffffffffffffffffffffffff168173ffffffffffffffffffffffffffffffffffffffff161415610d75576040517f08c379a0000000000000000000000000000000000000000000000000000000008152600401610d6c90611928565b60405180910390fd5b610d7e81610d89565b50565b600033905090565b6000603360009054906101000a900473ffffffffffffffffffffffffffffffffffffffff16905081603360006101000a81548173ffffffffffffffffffffffffffffffffffffffff021916908373ffffffffffffffffffffffffffffffffffffffff1602179055508173ffffffffffffffffffffffffffffffffffffffff168173ffffffffffffffffffffffffffffffffffffffff167f8be0079c531659141344cd1fd0a4f28419497f9722a3daafe3b4186f6b6457e060405160405180910390a35050565b610ed08363a9059cbb60e01b8484604051602401610e6e92919061189b565b604051602081830303815290604052907bffffffffffffffffffffffffffffffffffffffffffffffffffffffff19166020820180517bffffffffffffffffffffffffffffffffffffffffffffffffffffffff8381831617835250505050610fbe565b505050565b600060019054906101000a900460ff1680610efb575060008054906101000a900460ff16155b610f3a576040517f08c379a0000000000000000000000000000000000000000000000000000000008152600401610f31906119c8565b60405180910390fd5b60008060019054906101000a900460ff161590508015610f8a576001600060016101000a81548160ff02191690831515021790555060016000806101000a81548160ff0219169083151502179055505b610f92611085565b610f9a61115e565b8015610fbb5760008060016101000a81548160ff0219169083151502179055505b50565b6000611020826040518060400160405280602081526020017f5361666545524332303a206c6f772d6c6576656c2063616c6c206661696c65648152508573ffffffffffffffffffffffffffffffffffffffff166112479092919063ffffffff16565b9050600081511115611080578080602001905181019061104091906114de565b61107f576040517f08c379a000000000000000000000000000000000000000000000000000000000815260040161107690611a28565b60405180910390fd5b5b505050565b600060019054906101000a900460ff16806110ab575060008054906101000a900460ff16155b6110ea576040517f08c379a00000000000000000000000000000000000000000000000000000000081526004016110e1906119c8565b60405180910390fd5b60008060019054906101000a900460ff16159050801561113a576001600060016101000a81548160ff02191690831515021790555060016000806101000a81548160ff0219169083151502179055505b801561115b5760008060016101000a81548160ff0219169083151502179055505b50565b600060019054906101000a900460ff1680611184575060008054906101000a900460ff16155b6111c3576040517f08c379a00000000000000000000000000000000000000000000000000000000081526004016111ba906119c8565b60405180910390fd5b60008060019054906101000a900460ff161590508015611213576001600060016101000a81548160ff02191690831515021790555060016000806101000a81548160ff0219169083151502179055505b61122361121e610d81565b610d89565b80156112445760008060016101000a81548160ff0219169083151502179055505b50565b6060611256848460008561125f565b90509392505050565b6060824710156112a4576040517f08c379a000000000000000000000000000000000000000000000000000000000815260040161129b90611968565b60405180910390fd5b6112ad85611373565b6112ec576040517f08c379a00000000000000000000000000000000000000000000000000000000081526004016112e390611a08565b60405180910390fd5b6000808673ffffffffffffffffffffffffffffffffffffffff1685876040516113159190611869565b60006040518083038185875af1925050503d8060008114611352576040519150601f19603f3d011682016040523d82523d6000602084013e611357565b606091505b5091509150611367828286611386565b92505050949350505050565b600080823b905060008111915050919050565b60608315611396578290506113e6565b6000835111156113a95782518084602001fd5b816040517f08c379a00000000000000000000000000000000000000000000000000000000081526004016113dd91906118e6565b60405180910390fd5b9392505050565b60006114006113fb84611a88565b611a63565b90508281526020810184848401111561141c5761141b611c70565b5b611427848285611b9a565b509392505050565b60008135905061143e81611f5a565b92915050565b60008151905061145381611f71565b92915050565b600082601f83011261146e5761146d611c6b565b5b813561147e8482602086016113ed565b91505092915050565b60008135905061149681611f88565b92915050565b6000815190506114ab81611f88565b92915050565b6000602082840312156114c7576114c6611c7a565b5b60006114d58482850161142f565b91505092915050565b6000602082840312156114f4576114f3611c7a565b5b600061150284828501611444565b91505092915050565b60006020828403121561152157611520611c7a565b5b600082013567ffffffffffffffff81111561153f5761153e611c75565b5b61154b84828501611459565b91505092915050565b6000806040838503121561156b5761156a611c7a565b5b600083013567ffffffffffffffff81111561158957611588611c75565b5b61159585828601611459565b92505060206115a68582860161142f565b9150509250929050565b6000602082840312156115c6576115c5611c7a565b5b60006115d484828501611487565b91505092915050565b6000602082840312156115f3576115f2611c7a565b5b60006116018482850161149c565b91505092915050565b6000806040838503121561162157611620611c7a565b5b600061162f85828601611487565b92505060206116408582860161142f565b9150509250929050565b61165381611b52565b82525050565b600061166482611ab9565b61166e8185611acf565b935061167e818560208601611ba9565b61168781611c7f565b840191505092915050565b600061169d82611ab9565b6116a78185611ae0565b93506116b7818560208601611ba9565b80840191505092915050565b60006116ce82611ac4565b6116d88185611aeb565b93506116e8818560208601611ba9565b6116f181611c7f565b840191505092915050565b6000611709603083611aeb565b915061171482611c90565b604082019050919050565b600061172c602683611aeb565b915061173782611cdf565b604082019050919050565b600061174f602f83611aeb565b915061175a82611d2e565b604082019050919050565b6000611772602683611aeb565b915061177d82611d7d565b604082019050919050565b6000611795602a83611aeb565b91506117a082611dcc565b604082019050919050565b60006117b8602e83611aeb565b91506117c382611e1b565b604082019050919050565b60006117db602e83611aeb565b91506117e682611e6a565b604082019050919050565b60006117fe602083611aeb565b915061180982611eb9565b602082019050919050565b6000611821601d83611aeb565b915061182c82611ee2565b602082019050919050565b6000611844602a83611aeb565b915061184f82611f0b565b604082019050919050565b61186381611b90565b82525050565b60006118758284611692565b915081905092915050565b6000602082019050611895600083018461164a565b92915050565b60006040820190506118b0600083018561164a565b6118bd602083018461185a565b9392505050565b600060208201905081810360008301526118de8184611659565b905092915050565b6000602082019050818103600083015261190081846116c3565b905092915050565b60006020820190508181036000830152611921816116fc565b9050919050565b600060208201905081810360008301526119418161171f565b9050919050565b6000602082019050818103600083015261196181611742565b9050919050565b6000602082019050818103600083015261198181611765565b9050919050565b600060208201905081810360008301526119a181611788565b9050919050565b600060208201905081810360008301526119c1816117ab565b9050919050565b600060208201905081810360008301526119e1816117ce565b9050919050565b60006020820190508181036000830152611a01816117f1565b9050919050565b60006020820190508181036000830152611a2181611814565b9050919050565b60006020820190508181036000830152611a4181611837565b9050919050565b6000602082019050611a5d600083018461185a565b92915050565b6000611a6d611a7e565b9050611a798282611bdc565b919050565b6000604051905090565b600067ffffffffffffffff821115611aa357611aa2611c3c565b5b611aac82611c7f565b9050602081019050919050565b600081519050919050565b600081519050919050565b600082825260208201905092915050565b600081905092915050565b600082825260208201905092915050565b6000611b0782611b90565b9150611b1283611b90565b9250827fffffffffffffffffffffffffffffffffffffffffffffffffffffffffffffffff03821115611b4757611b46611c0d565b5b828201905092915050565b6000611b5d82611b70565b9050919050565b60008115159050919050565b600073ffffffffffffffffffffffffffffffffffffffff82169050919050565b6000819050919050565b82818337600083830152505050565b60005b83811015611bc7578082015181840152602081019050611bac565b83811115611bd6576000848401525b50505050565b611be582611c7f565b810181811067ffffffffffffffff82111715611c0457611c03611c3c565b5b80604052505050565b7f4e487b7100000000000000000000000000000000000000000000000000000000600052601160045260246000fd5b7f4e487b7100000000000000000000000000000000000000000000000000000000600052604160045260246000fd5b600080fd5b600080fd5b600080fd5b600080fd5b6000601f19601f8301169050919050565b7f4861727665737465723a206368696c6420746f6b656e2061646472657373206d60008201527f7573742062652073706563696669656400000000000000000000000000000000602082015250565b7f4f776e61626c653a206e6577206f776e657220697320746865207a65726f206160008201527f6464726573730000000000000000000000000000000000000000000000000000602082015250565b7f4861727665737465723a2073686f756c64206f6e6c792062652063616c6c656460008201527f206f6e206368696c6420636861696e0000000000000000000000000000000000602082015250565b7f416464726573733a20696e73756666696369656e742062616c616e636520666f60008201527f722063616c6c0000000000000000000000000000000000000000000000000000602082015250565b7f4861727665737465723a20746f6b656e2061646472657373206d75737420626560008201527f2073706563696669656400000000000000000000000000000000000000000000602082015250565b7f4861727665737465723a2073686f756c64206f6e6c792062652063616c6c656460008201527f206f6e20726f6f7420636861696e000000000000000000000000000000000000602082015250565b7f496e697469616c697a61626c653a20636f6e747261637420697320616c72656160008201527f647920696e697469616c697a6564000000000000000000000000000000000000602082015250565b7f4f776e61626c653a2063616c6c6572206973206e6f7420746865206f776e6572600082015250565b7f416464726573733a2063616c6c20746f206e6f6e2d636f6e7472616374000000600082015250565b7f5361666545524332303a204552433230206f7065726174696f6e20646964206e60008201527f6f74207375636365656400000000000000000000000000000000000000000000602082015250565b611f6381611b52565b8114611f6e57600080fd5b50565b611f7a81611b64565b8114611f8557600080fd5b50565b611f9181611b90565b8114611f9c57600080fd5b5056fea26469706673582212207ee359a55625009b15a8d6a9e5b2a9cc07101c6f2a7e232d204a04b5e6ac9f2564736f6c63430008060033",
  "devdoc": {
    "author": "Alex T",
    "details": "It needs to be deployed at the same address on both chains. Uses CREATE2 on deploy to achieve that",
    "events": {
      "TransferToOwner(address,address,address,uint256)": {
        "details": "Emitted when transferToOwner is called",
        "params": {
          "amount": "The amount of tokens that were sent to the child chain",
          "caller": "Address that called transferToOwner",
          "owner": "Address that the funds have been transferred to",
          "token": "Address of the transferred token"
        }
      },
      "WithdrawOnChild(address,address,uint256)": {
        "details": "Emitted when withdrawOnChild is called",
        "params": {
          "amount": "The amount of tokens that were withdrawn",
          "caller": "Address that called withdrawOnChild",
          "token": "Address of the withdrawn token"
        }
      },
      "WithdrawOnRoot(address)": {
        "details": "Emitted when withdrawOnRoot is called",
        "params": {
          "caller": "Address that called withdrawOnRoot"
        }
      }
    },
    "kind": "dev",
    "methods": {
      "initialize(uint256,address)": {
        "details": "Needs to be called after deployment. Get addresses from https://github.com/maticnetwork/static/tree/master/network",
        "params": {
          "_rootChainManager": "Address of Polygon rootChainManager. Set to zero address on child chain",
          "_withdrawCooldown": "Number of blocks needed between withdrawals"
        }
      },
      "owner()": {
        "details": "Returns the address of the current owner."
      },
      "renounceOwnership()": {
        "details": "Leaves the contract without owner. It will not be possible to call `onlyOwner` functions anymore. Can only be called by the current owner. NOTE: Renouncing ownership will leave the contract without an owner, thereby removing any functionality that is only available to the owner."
      },
      "setWithdrawCooldown(uint256)": {
        "details": "This limit is set to not spam the withdrawal process with lots of small withdrawals",
        "params": {
          "_withdrawCooldown": "Number of blocks needed between withdrawals"
        }
      },
      "transferOwnership(address)": {
        "details": "Transfers ownership of the contract to a new account (`newOwner`). Can only be called by the current owner."
      },
      "transferToOwner(address)": {
        "details": "Use this after withdrawOnRoot to transfer what you have exited from Polygon to owner",
        "params": {
          "_token": "Address of token to transfer"
        }
      },
      "withdrawAndTransferToOwner(bytes,address)": {
        "details": "Calls withdrawOnRoot then transferToOwner",
        "params": {
          "_data": "Exit payload created with the Matic SDK",
          "_token": "Address of token to transfer"
        }
      },
      "withdrawOnChild(address)": {
        "details": "Emits WithdrawOnChild on succesful withdraw and burn",
        "params": {
          "_childToken": "Address of token to withdraw"
        }
      },
      "withdrawOnRoot(bytes)": {
        "details": "Forwards the exit call to the Polygon rootChainManager",
        "params": {
          "_data": "Exit payload created with the Matic SDK"
        },
        "returns": {
          "_0": "Bytes return of the rootChainManager exit call"
        }
      }
    },
    "title": "PolygonTokenHarvester",
    "version": 1
  },
  "userdoc": {
    "events": {
      "TransferToOwner(address,address,address,uint256)": {
        "notice": "Logs a transfer of tokens to owner"
      },
      "WithdrawOnChild(address,address,uint256)": {
        "notice": "Logs withdrawal being made on the child chain"
      },
      "WithdrawOnRoot(address)": {
        "notice": "Logs a withdrawal being made on the root chain"
      }
    },
    "kind": "user",
    "methods": {
      "initialize(uint256,address)": {
        "notice": "PolygonTokenHarvester initializer"
      },
      "setWithdrawCooldown(uint256)": {
        "notice": "Sets the minimum number of blocks that must pass between withdrawals"
      },
      "transferToOwner(address)": {
        "notice": "Transfers full balance of token to owner"
      },
      "withdrawAndTransferToOwner(bytes,address)": {
        "notice": "Exit funds from polygon and transfer to owner"
      },
      "withdrawOnChild(address)": {
        "notice": "Withdraws full token balance from the child chain"
      },
      "withdrawOnRoot(bytes)": {
        "notice": "Withdraws to itself exited funds from Polygon"
      }
    },
    "notice": "Assists with moving any given token from the child chain to the root chain. Made for Polygon",
    "version": 1
  },
  "storageLayout": {
    "storage": [
      {
        "astId": 130,
        "contract": "contracts/PolygonTokenHarvester.sol:PolygonTokenHarvester",
        "label": "_initialized",
        "offset": 0,
        "slot": "0",
        "type": "t_bool"
      },
      {
        "astId": 133,
        "contract": "contracts/PolygonTokenHarvester.sol:PolygonTokenHarvester",
        "label": "_initializing",
        "offset": 1,
        "slot": "0",
        "type": "t_bool"
      },
      {
        "astId": 212,
        "contract": "contracts/PolygonTokenHarvester.sol:PolygonTokenHarvester",
        "label": "__gap",
        "offset": 0,
        "slot": "1",
        "type": "t_array(t_uint256)50_storage"
      },
      {
        "astId": 10,
        "contract": "contracts/PolygonTokenHarvester.sol:PolygonTokenHarvester",
        "label": "_owner",
        "offset": 0,
        "slot": "51",
        "type": "t_address"
      },
      {
        "astId": 123,
        "contract": "contracts/PolygonTokenHarvester.sol:PolygonTokenHarvester",
        "label": "__gap",
        "offset": 0,
        "slot": "52",
        "type": "t_array(t_uint256)49_storage"
      },
      {
        "astId": 827,
        "contract": "contracts/PolygonTokenHarvester.sol:PolygonTokenHarvester",
        "label": "_onRootChain",
        "offset": 0,
        "slot": "101",
        "type": "t_bool"
      },
      {
        "astId": 829,
        "contract": "contracts/PolygonTokenHarvester.sol:PolygonTokenHarvester",
        "label": "rootChainManager",
        "offset": 1,
        "slot": "101",
        "type": "t_address"
      },
      {
        "astId": 833,
        "contract": "contracts/PolygonTokenHarvester.sol:PolygonTokenHarvester",
        "label": "lastWithdraw",
        "offset": 0,
        "slot": "102",
        "type": "t_mapping(t_address,t_uint256)"
      },
      {
        "astId": 835,
        "contract": "contracts/PolygonTokenHarvester.sol:PolygonTokenHarvester",
        "label": "withdrawCooldown",
        "offset": 0,
        "slot": "103",
        "type": "t_uint256"
      }
    ],
    "types": {
      "t_address": {
        "encoding": "inplace",
        "label": "address",
        "numberOfBytes": "20"
      },
      "t_array(t_uint256)49_storage": {
        "base": "t_uint256",
        "encoding": "inplace",
        "label": "uint256[49]",
        "numberOfBytes": "1568"
      },
      "t_array(t_uint256)50_storage": {
        "base": "t_uint256",
        "encoding": "inplace",
        "label": "uint256[50]",
        "numberOfBytes": "1600"
      },
      "t_bool": {
        "encoding": "inplace",
        "label": "bool",
        "numberOfBytes": "1"
      },
      "t_mapping(t_address,t_uint256)": {
        "encoding": "mapping",
        "key": "t_address",
        "label": "mapping(address => uint256)",
        "numberOfBytes": "32",
        "value": "t_uint256"
      },
      "t_uint256": {
        "encoding": "inplace",
        "label": "uint256",
        "numberOfBytes": "32"
      }
    }
  }
}